{
  "contractName": "BasicExample",
  "abi": [
    {
      "constant": true,
      "inputs": [],
      "name": "isContractReady",
      "outputs": [
        {
          "internalType": "bool",
          "name": "",
          "type": "bool"
        }
      ],
      "payable": false,
      "stateMutability": "view",
      "type": "function"
    },
    {
      "constant": false,
      "inputs": [
        {
          "internalType": "uint256",
          "name": "newNumber",
          "type": "uint256"
        }
      ],
      "name": "setNumber",
      "outputs": [],
      "payable": false,
      "stateMutability": "nonpayable",
      "type": "function"
    },
    {
      "constant": true,
      "inputs": [],
      "name": "getNumber",
      "outputs": [
        {
          "internalType": "uint256",
          "name": "",
          "type": "uint256"
        }
      ],
      "payable": false,
      "stateMutability": "view",
      "type": "function"
    },
    {
      "constant": true,
      "inputs": [],
      "name": "getTwoNumbers",
      "outputs": [
        {
          "internalType": "uint256",
          "name": "",
          "type": "uint256"
        },
        {
          "internalType": "uint256",
          "name": "",
          "type": "uint256"
        }
      ],
      "payable": false,
      "stateMutability": "pure",
      "type": "function"
    },
    {
      "constant": true,
      "inputs": [
        {
          "internalType": "uint256",
          "name": "a",
          "type": "uint256"
        },
        {
          "internalType": "uint256",
          "name": "b",
          "type": "uint256"
        }
      ],
      "name": "add",
      "outputs": [
        {
          "internalType": "uint256",
          "name": "",
          "type": "uint256"
        }
      ],
      "payable": false,
      "stateMutability": "pure",
      "type": "function"
    }
  ],
  "bytecode": "0x608060405260026000556001805460ff1916905534801561001f57600080fd5b5061014a8061002f6000396000f3fe608060405234801561001057600080fd5b50600436106100575760003560e01c80633a02230d1461005c5780633fb5c1cb1461007857806352948b5f14610097578063771602f7146100b8578063f2c9ecd8146100ed575b600080fd5b6100646100f5565b604080519115158252519081900360200190f35b6100956004803603602081101561008e57600080fd5b50356100fe565b005b61009f610103565b6040805192835260208301919091528051918290030190f35b6100db600480360360408110156100ce57600080fd5b508035906020013561010b565b60408051918252519081900360200190f35b6100db61010f565b60015460ff1681565b600055565b602a600f9091565b0190565b6000549056fea265627a7a723158205cf2ca72f1ab27d93582b98fbc0e08b73c81eeb2380a594a0310e95887c6687964736f6c634300050b0032",
  "source": "pragma solidity 0.5.11;\n\n/**\n * @title A basic contract\n * @notice A notice for the basic contract\n * @dev Some dev stuff for the basic contract\n * @author Clemlak\n */\ncontract BasicExample {\n    uint256 private number = 2;\n    bool public isContractReady = false;\n\n    /**\n     * @notice Sets a number\n     * @dev This is an external function\n     * @param newNumber The new value of the number\n     */\n    function setNumber(uint256 newNumber) external {\n        number = newNumber;\n    }\n\n    /**\n     * @notice Gets the number\n     * @dev This is an external view function\n     * @return The value of the number\n     */\n    function getNumber() external view returns (uint256) {\n        return number;\n    }\n\n    /**\n     * @notice Gets two numbers\n     * @dev This function looks complex\n     * @return A cool number\n     * @return Another cool number\n     */\n    function getTwoNumbers() external pure returns (\n        uint256,\n        uint256\n    ) {\n        return (\n            42,\n            15\n        );\n    }\n\n    /**\n     * @notice Add two numbers\n     * @dev This function looks complex\n     * @param a A number\n     * @param b Another number\n     * @return The sum of a + b\n     */\n    function add(\n        uint256 a,\n        uint256 b\n    ) external pure returns (\n        uint256\n    ) {\n        return a + b;\n    }\n\n    /**\n     * @notice A private function\n     * @dev This function is private, shush\n     * @param a A number\n     * @return The number multiplied by 2\n     */\n    function somePrivateFunction(\n        uint256 a\n    ) private pure returns (\n        uint256\n    ) {\n        return a * 2;\n    }\n\n    modifier onlyIfContractIsReady() {\n        require(isContractReady, \"Contract not ready\");\n        _;\n    }\n}\n",
  "sourcePath": "/Users/clement/Documents/Dev/sandbox/BasicExample/contracts/BasicExample.sol",
  "compiler": {
    "name": "solc",
    "version": "0.5.11+commit.c082d0b4.Emscripten.clang"
  },
  "schemaVersion": "3.0.18",
  "updatedAt": "2019-11-27T08:23:51.620Z",
  "devdoc": {
    "author": "Clemlak",
    "details": "Some dev stuff for the basic contract",
    "methods": {
      "add(uint256,uint256)": {
        "details": "This function looks complex",
        "params": {
          "a": "A number",
          "b": "Another number"
        },
        "return": "The sum of a + b"
      },
      "getNumber()": {
        "details": "This is an external view function",
        "return": "The value of the number"
      },
      "getTwoNumbers()": {
        "details": "This function looks complex",
        "return": "A cool numberAnother cool number"
      },
      "setNumber(uint256)": {
        "details": "This is an external function",
        "params": {
          "newNumber": "The new value of the number"
        }
      }
    },
    "title": "A basic contract"
  },
  "userdoc": {
    "methods": {
      "add(uint256,uint256)": {
        "notice": "Add two numbers"
      },
      "getNumber()": {
        "notice": "Gets the number"
      },
      "getTwoNumbers()": {
        "notice": "Gets two numbers"
      },
      "setNumber(uint256)": {
        "notice": "Sets a number"
      }
    },
    "notice": "A notice for the basic contract"
  }
}